{
  "contractName": "PLToken",
  "abi": [
    {
      "inputs": [],
      "payable": false,
      "stateMutability": "nonpayable",
      "type": "constructor"
    },
    {
      "constant": true,
      "inputs": [],
      "name": "totalSupply",
      "outputs": [
        {
          "internalType": "uint256",
          "name": "",
          "type": "uint256"
        }
      ],
      "payable": false,
      "stateMutability": "view",
      "type": "function"
    }
  ],
  "bytecode": "0x6080604052348015600f57600080fd5b50620186a06000819055506087806100286000396000f3fe6080604052348015600f57600080fd5b506004361060285760003560e01c806318160ddd14602d575b600080fd5b60336049565b6040518082815260200191505060405180910390f35b6000805490509056fea265627a7a723158202eb626d68aa9df3fe6b8bae78c169331d70a0d305347a19a29c6195a190a233764736f6c63430005100032",
  "source": "pragma solidity >=0.4.22 <0.9.0;\n\ncontract PLToken {\n    \n    uint256 private supply;\n\n    constructor() public {\n        supply = 100000;\n    }\n\n    function totalSupply() public view returns(uint256) {\n        return supply;\n    }\n}",
  "sourcePath": "/var/www/pltrades/dpp-token/contracts/PLToken.sol",
  "compiler": {
    "name": "solc",
    "version": "0.5.16+commit.9c3226ce.Emscripten.clang"
  },
  "schemaVersion": "3.4.3",
  "updatedAt": "2021-09-06T03:26:11.351Z",
  "networkType": "ethereum",
  "devdoc": {
    "methods": {}
  },
  "userdoc": {
    "methods": {}
  }
}